{
  "contractName": "Marketplace",
  "abi": [
    {
      "constant": true,
      "inputs": [],
      "name": "name",
      "outputs": [
        {
          "name": "",
          "type": "string"
        }
      ],
      "payable": false,
      "stateMutability": "view",
      "type": "function",
      "signature": "0x06fdde03"
    },
    {
      "constant": true,
      "inputs": [
        {
          "name": "",
          "type": "uint256"
        }
      ],
      "name": "electricitys",
      "outputs": [
        {
          "name": "id",
          "type": "uint256"
        },
        {
          "name": "name",
          "type": "string"
        },
        {
          "name": "price",
          "type": "uint256"
        },
        {
          "name": "owner",
          "type": "address"
        },
        {
          "name": "purchased",
          "type": "bool"
        }
      ],
      "payable": false,
      "stateMutability": "view",
      "type": "function",
      "signature": "0xb113bd32"
    },
    {
      "constant": true,
      "inputs": [],
      "name": "electricityCount",
      "outputs": [
        {
          "name": "",
          "type": "uint256"
        }
      ],
      "payable": false,
      "stateMutability": "view",
      "type": "function",
      "signature": "0xce02b360"
    },
    {
      "inputs": [],
      "payable": false,
      "stateMutability": "nonpayable",
      "type": "constructor",
      "signature": "constructor"
    },
    {
      "anonymous": false,
      "inputs": [
        {
          "indexed": false,
          "name": "id",
          "type": "uint256"
        },
        {
          "indexed": false,
          "name": "name",
          "type": "string"
        },
        {
          "indexed": false,
          "name": "price",
          "type": "uint256"
        },
        {
          "indexed": false,
          "name": "owner",
          "type": "address"
        },
        {
          "indexed": false,
          "name": "purchased",
          "type": "bool"
        }
      ],
      "name": "electricityCreated",
      "type": "event",
      "signature": "0x1b23a613592b736a6ba371fb3f23077cafffcafe54142f0e8c0168599eee3b4c"
    },
    {
      "anonymous": false,
      "inputs": [
        {
          "indexed": false,
          "name": "id",
          "type": "uint256"
        },
        {
          "indexed": false,
          "name": "name",
          "type": "string"
        },
        {
          "indexed": false,
          "name": "price",
          "type": "uint256"
        },
        {
          "indexed": false,
          "name": "owner",
          "type": "address"
        },
        {
          "indexed": false,
          "name": "purchased",
          "type": "bool"
        }
      ],
      "name": "electricityPurchased",
      "type": "event",
      "signature": "0xd48e8430a4cc34068e532222dcf3e0f2a22918794a5b6951e38e2f35cc0c21c6"
    },
    {
      "constant": false,
      "inputs": [
        {
          "name": "_name",
          "type": "string"
        },
        {
          "name": "_price",
          "type": "uint256"
        }
      ],
      "name": "createelectricity",
      "outputs": [],
      "payable": false,
      "stateMutability": "nonpayable",
      "type": "function",
      "signature": "0xc730c8f2"
    },
    {
      "constant": false,
      "inputs": [
        {
          "name": "_id",
          "type": "uint256"
        }
      ],
      "name": "purchaseelectricity",
      "outputs": [],
      "payable": true,
      "stateMutability": "payable",
      "type": "function",
      "signature": "0xc5df5627"
    }
  ],
  "bytecode": "0x6080604052600060015534801561001557600080fd5b506040805190810160405280600b81526020017f656c65637472696369747900000000000000000000000000000000000000000081525060009080519060200190610061929190610067565b5061010c565b828054600181600116156101000203166002900490600052602060002090601f016020900481019282601f106100a857805160ff19168380011785556100d6565b828001600101855582156100d6579182015b828111156100d55782518255916020019190600101906100ba565b5b5090506100e391906100e7565b5090565b61010991905b808211156101055760008160009055506001016100ed565b5090565b90565b610c148061011b6000396000f3fe60806040526004361061006d576000357c0100000000000000000000000000000000000000000000000000000000900463ffffffff16806306fdde0314610072578063b113bd3214610102578063c5df562714610202578063c730c8f214610230578063ce02b36014610302575b600080fd5b34801561007e57600080fd5b5061008761032d565b6040518080602001828103825283818151815260200191508051906020019080838360005b838110156100c75780820151818401526020810190506100ac565b50505050905090810190601f1680156100f45780820380516001836020036101000a031916815260200191505b509250505060405180910390f35b34801561010e57600080fd5b5061013b6004803603602081101561012557600080fd5b81019080803590602001909291905050506103cb565b60405180868152602001806020018581526020018473ffffffffffffffffffffffffffffffffffffffff1673ffffffffffffffffffffffffffffffffffffffff16815260200183151515158152602001828103825286818151815260200191508051906020019080838360005b838110156101c35780820151818401526020810190506101a8565b50505050905090810190601f1680156101f05780820380516001836020036101000a031916815260200191505b50965050505050505060405180910390f35b61022e6004803603602081101561021857600080fd5b81019080803590602001909291905050506104c6565b005b34801561023c57600080fd5b506103006004803603604081101561025357600080fd5b810190808035906020019064010000000081111561027057600080fd5b82018360208201111561028257600080fd5b803590602001918460018302840111640100000000831117156102a457600080fd5b91908080601f016020809104026020016040519081016040528093929190818152602001838380828437600081840152601f19601f820116905080830192505050505050509192919290803590602001909291905050506108de565b005b34801561030e57600080fd5b50610317610af5565b6040518082815260200191505060405180910390f35b60008054600181600116156101000203166002900480601f0160208091040260200160405190810160405280929190818152602001828054600181600116156101000203166002900480156103c35780601f10610398576101008083540402835291602001916103c3565b820191906000526020600020905b8154815290600101906020018083116103a657829003601f168201915b505050505081565b6002602052806000526040600020600091509050806000015490806001018054600181600116156101000203166002900480601f01602080910402602001604051908101604052809291908181526020018280546001816001161561010002031660029004801561047d5780601f106104525761010080835404028352916020019161047d565b820191906000526020600020905b81548152906001019060200180831161046057829003601f168201915b5050505050908060020154908060030160009054906101000a900473ffffffffffffffffffffffffffffffffffffffff16908060030160149054906101000a900460ff16905085565b6104ce610afb565b6002600083815260200190815260200160002060a0604051908101604052908160008201548152602001600182018054600181600116156101000203166002900480601f0160208091040260200160405190810160405280929190818152602001828054600181600116156101000203166002900480156105905780601f1061056557610100808354040283529160200191610590565b820191906000526020600020905b81548152906001019060200180831161057357829003601f168201915b50505050508152602001600282015481526020016003820160009054906101000a900473ffffffffffffffffffffffffffffffffffffffff1673ffffffffffffffffffffffffffffffffffffffff1673ffffffffffffffffffffffffffffffffffffffff1681526020016003820160149054906101000a900460ff1615151515815250509050600081606001519050600082600001511180156106395750600154826000015111155b151561064457600080fd5b8160400151341015151561065757600080fd5b816080015115151561066857600080fd5b3373ffffffffffffffffffffffffffffffffffffffff168173ffffffffffffffffffffffffffffffffffffffff16141515156106a357600080fd5b33826060019073ffffffffffffffffffffffffffffffffffffffff16908173ffffffffffffffffffffffffffffffffffffffff168152505060018260800190151590811515815250508160026000858152602001908152602001600020600082015181600001556020820151816001019080519060200190610726929190610b43565b506040820151816002015560608201518160030160006101000a81548173ffffffffffffffffffffffffffffffffffffffff021916908373ffffffffffffffffffffffffffffffffffffffff16021790555060808201518160030160146101000a81548160ff0219169083151502179055509050508073ffffffffffffffffffffffffffffffffffffffff166108fc349081150290604051600060405180830381858888f193505050501580156107e1573d6000803e3d6000fd5b507fd48e8430a4cc34068e532222dcf3e0f2a22918794a5b6951e38e2f35cc0c21c66001548360200151846040015133600160405180868152602001806020018581526020018473ffffffffffffffffffffffffffffffffffffffff1673ffffffffffffffffffffffffffffffffffffffff16815260200183151515158152602001828103825286818151815260200191508051906020019080838360005b8381101561089b578082015181840152602081019050610880565b50505050905090810190601f1680156108c85780820380516001836020036101000a031916815260200191505b50965050505050505060405180910390a1505050565b600082511115156108ee57600080fd5b6000811115156108fd57600080fd5b60016000815480929190600101919050555060a06040519081016040528060015481526020018381526020018281526020013373ffffffffffffffffffffffffffffffffffffffff1681526020016000151581525060026000600154815260200190815260200160002060008201518160000155602082015181600101908051906020019061098d929190610b43565b506040820151816002015560608201518160030160006101000a81548173ffffffffffffffffffffffffffffffffffffffff021916908373ffffffffffffffffffffffffffffffffffffffff16021790555060808201518160030160146101000a81548160ff0219169083151502179055509050507f1b23a613592b736a6ba371fb3f23077cafffcafe54142f0e8c0168599eee3b4c600154838333600060405180868152602001806020018581526020018473ffffffffffffffffffffffffffffffffffffffff1673ffffffffffffffffffffffffffffffffffffffff16815260200183151515158152602001828103825286818151815260200191508051906020019080838360005b83811015610ab3578082015181840152602081019050610a98565b50505050905090810190601f168015610ae05780820380516001836020036101000a031916815260200191505b50965050505050505060405180910390a15050565b60015481565b60a060405190810160405280600081526020016060815260200160008152602001600073ffffffffffffffffffffffffffffffffffffffff1681526020016000151581525090565b828054600181600116156101000203166002900490600052602060002090601f016020900481019282601f10610b8457805160ff1916838001178555610bb2565b82800160010185558215610bb2579182015b82811115610bb1578251825591602001919060010190610b96565b5b509050610bbf9190610bc3565b5090565b610be591905b80821115610be1576000816000905550600101610bc9565b5090565b9056fea165627a7a72305820b3196689e78d6e435d70b76ee948952d2819e93e03233b5fca18684c5cb391790029",
  "source": "pragma solidity >=0.4.21 <0.6.0;\r\n\r\ncontract Marketplace {\r\n    string public name;\r\n    uint public electricityCount = 0;\r\n    mapping(uint => electricity) public electricitys;\r\n\r\n    struct electricity {\r\n        uint id;\r\n        string name;\r\n        uint price;\r\n        address payable owner;\r\n        bool purchased;\r\n    }\r\n\r\n    event electricityCreated(\r\n        uint id,\r\n        string name,\r\n        uint price,\r\n        address payable owner,\r\n        bool purchased\r\n    );\r\n\r\n    event electricityPurchased(\r\n        uint id,\r\n        string name,\r\n        uint price,\r\n        address payable owner,\r\n        bool purchased\r\n    );\r\n\r\n    constructor() public {\r\n        name = \"electricity\";\r\n    }\r\n\r\n    function createelectricity(string memory _name, uint _price) public {\r\n        require(bytes(_name).length > 0);\r\n        require(_price > 0);\r\n        electricityCount ++;\r\n        electricitys[electricityCount] = electricity(electricityCount, _name, _price, msg.sender, false);\r\n        emit electricityCreated(electricityCount, _name, _price, msg.sender, false);\r\n    }\r\n\r\n    function purchaseelectricity(uint _id) public payable {\r\n        electricity memory _electricity = electricitys[_id];\r\n        address payable _seller = _electricity.owner;\r\n        require(_electricity.id > 0 && _electricity.id <= electricityCount);\r\n        require(msg.value >= _electricity.price);\r\n        require(!_electricity.purchased);\r\n        require(_seller != msg.sender);\r\n        _electricity.owner = msg.sender;\r\n        _electricity.purchased = true;\r\n        electricitys[_id] = _electricity;\r\n        address(_seller).transfer(msg.value);\r\n        emit electricityPurchased(electricityCount, _electricity.name, _electricity.price, msg.sender, true);\r\n    }\r\n}\r\n",
  "sourcePath": "C:/Users/User/Desktop/fullproject/full/electricity/src/contracts/Marketplace.sol",
  "compiler": {
    "name": "solc",
    "version": "0.5.0+commit.1d4f565a.Emscripten.clang"
  },
  "schemaVersion": "3.0.2",
  "updatedAt": "2021-05-04T06:12:30.666Z",
  "devdoc": {
    "methods": {}
  },
  "userdoc": {
    "methods": {}
  }
}